{
  "_format": "hh-sol-artifact-1",
  "contractName": "ProductReviews",
  "sourceName": "contracts/ProductReviews.sol",
  "abi": [
    {
      "inputs": [
        {
          "internalType": "string",
          "name": "_productName",
          "type": "string"
        },
        {
          "internalType": "string",
          "name": "_reviewText",
          "type": "string"
        }
      ],
      "name": "addReview",
      "outputs": [],
      "stateMutability": "nonpayable",
      "type": "function"
    },
    {
      "inputs": [
        {
          "internalType": "string",
          "name": "productName",
          "type": "string"
        }
      ],
      "name": "getReviewsByProduct",
      "outputs": [
        {
          "components": [
            {
              "internalType": "string",
              "name": "productName",
              "type": "string"
            },
            {
              "internalType": "string",
              "name": "reviewText",
              "type": "string"
            }
          ],
          "internalType": "struct ProductReviews.Review[]",
          "name": "",
          "type": "tuple[]"
        }
      ],
      "stateMutability": "view",
      "type": "function"
    },
    {
      "inputs": [
        {
          "internalType": "address",
          "name": "user",
          "type": "address"
        }
      ],
      "name": "getReviewsByUser",
      "outputs": [
        {
          "components": [
            {
              "internalType": "string",
              "name": "productName",
              "type": "string"
            },
            {
              "internalType": "string",
              "name": "reviewText",
              "type": "string"
            }
          ],
          "internalType": "struct ProductReviews.Review[]",
          "name": "",
          "type": "tuple[]"
        }
      ],
      "stateMutability": "view",
      "type": "function"
    },
    {
      "inputs": [
        {
          "internalType": "address",
          "name": "",
          "type": "address"
        },
        {
          "internalType": "uint256",
          "name": "",
          "type": "uint256"
        }
      ],
      "name": "reviewsByUser",
      "outputs": [
        {
          "internalType": "string",
          "name": "productName",
          "type": "string"
        },
        {
          "internalType": "string",
          "name": "reviewText",
          "type": "string"
        }
      ],
      "stateMutability": "view",
      "type": "function"
    }
  ],
  "bytecode": "0x608060405234801561001057600080fd5b506110ca806100206000396000f3fe608060405234801561001057600080fd5b506004361061004c5760003560e01c80632d5ddf341461005157806348de21971461008157806387a5a227146100b1578063adb489a3146100e2575b600080fd5b61006b600480360381019061006691906109fb565b6100fe565b6040516100789190610bc7565b60405180910390f35b61009b60048036038101906100969190610d1e565b6102bf565b6040516100a89190610bc7565b60405180910390f35b6100cb60048036038101906100c69190610d9d565b6106b9565b6040516100d9929190610e27565b60405180910390f35b6100fc60048036038101906100f79190610e5e565b61080a565b005b60606000808373ffffffffffffffffffffffffffffffffffffffff1673ffffffffffffffffffffffffffffffffffffffff168152602001908152602001600020805480602002602001604051908101604052809291908181526020016000905b828210156102b4578382906000526020600020906002020160405180604001604052908160008201805461019190610f05565b80601f01602080910402602001604051908101604052809291908181526020018280546101bd90610f05565b801561020a5780601f106101df5761010080835404028352916020019161020a565b820191906000526020600020905b8154815290600101906020018083116101ed57829003601f168201915b5050505050815260200160018201805461022390610f05565b80601f016020809104026020016040519081016040528092919081815260200182805461024f90610f05565b801561029c5780601f106102715761010080835404028352916020019161029c565b820191906000526020600020905b81548152906001019060200180831161027f57829003601f168201915b5050505050815250508152602001906001019061015e565b505050509050919050565b60606000805b6000803373ffffffffffffffffffffffffffffffffffffffff1673ffffffffffffffffffffffffffffffffffffffff168152602001908152602001600020805490508110156103b45783805190602001206000803373ffffffffffffffffffffffffffffffffffffffff1673ffffffffffffffffffffffffffffffffffffffff168152602001908152602001600020828154811061036657610365610f37565b5b90600052602060002090600202016000016040516103849190611005565b604051809103902014156103a157818061039d9061104b565b9250505b80806103ac9061104b565b9150506102c5565b5060008167ffffffffffffffff8111156103d1576103d0610bf3565b5b60405190808252806020026020018201604052801561040a57816020015b6103f76108cc565b8152602001906001900390816103ef5790505b5090506000915060005b6000803373ffffffffffffffffffffffffffffffffffffffff1673ffffffffffffffffffffffffffffffffffffffff168152602001908152602001600020805490508110156106ae5784805190602001206000803373ffffffffffffffffffffffffffffffffffffffff1673ffffffffffffffffffffffffffffffffffffffff16815260200190815260200160002082815481106104b5576104b4610f37565b5b90600052602060002090600202016000016040516104d39190611005565b6040518091039020141561069b576000803373ffffffffffffffffffffffffffffffffffffffff1673ffffffffffffffffffffffffffffffffffffffff168152602001908152602001600020818154811061053157610530610f37565b5b906000526020600020906002020160405180604001604052908160008201805461055a90610f05565b80601f016020809104026020016040519081016040528092919081815260200182805461058690610f05565b80156105d35780601f106105a8576101008083540402835291602001916105d3565b820191906000526020600020905b8154815290600101906020018083116105b657829003601f168201915b505050505081526020016001820180546105ec90610f05565b80601f016020809104026020016040519081016040528092919081815260200182805461061890610f05565b80156106655780601f1061063a57610100808354040283529160200191610665565b820191906000526020600020905b81548152906001019060200180831161064857829003601f168201915b50505050508152505082848151811061068157610680610f37565b5b602002602001018190525082806106979061104b565b9350505b80806106a69061104b565b915050610414565b508092505050919050565b600060205281600052604060002081815481106106d557600080fd5b9060005260206000209060020201600091509150508060000180546106f990610f05565b80601f016020809104026020016040519081016040528092919081815260200182805461072590610f05565b80156107725780601f1061074757610100808354040283529160200191610772565b820191906000526020600020905b81548152906001019060200180831161075557829003601f168201915b50505050509080600101805461078790610f05565b80601f01602080910402602001604051908101604052809291908181526020018280546107b390610f05565b80156108005780601f106107d557610100808354040283529160200191610800565b820191906000526020600020905b8154815290600101906020018083116107e357829003601f168201915b5050505050905082565b600060405180604001604052808481526020018381525090506000803373ffffffffffffffffffffffffffffffffffffffff1673ffffffffffffffffffffffffffffffffffffffff16815260200190815260200160002081908060018154018082558091505060019003906000526020600020906002020160009091909190915060008201518160000190805190602001906108a79291906108e6565b5060208201518160010190805190602001906108c49291906108e6565b505050505050565b604051806040016040528060608152602001606081525090565b8280546108f290610f05565b90600052602060002090601f016020900481019282610914576000855561095b565b82601f1061092d57805160ff191683800117855561095b565b8280016001018555821561095b579182015b8281111561095a57825182559160200191906001019061093f565b5b509050610968919061096c565b5090565b5b8082111561098557600081600090555060010161096d565b5090565b6000604051905090565b600080fd5b600080fd5b600073ffffffffffffffffffffffffffffffffffffffff82169050919050565b60006109c88261099d565b9050919050565b6109d8816109bd565b81146109e357600080fd5b50565b6000813590506109f5816109cf565b92915050565b600060208284031215610a1157610a10610993565b5b6000610a1f848285016109e6565b91505092915050565b600081519050919050565b600082825260208201905092915050565b6000819050602082019050919050565b600081519050919050565b600082825260208201905092915050565b60005b83811015610a8e578082015181840152602081019050610a73565b83811115610a9d576000848401525b50505050565b6000601f19601f8301169050919050565b6000610abf82610a54565b610ac98185610a5f565b9350610ad9818560208601610a70565b610ae281610aa3565b840191505092915050565b60006040830160008301518482036000860152610b0a8282610ab4565b91505060208301518482036020860152610b248282610ab4565b9150508091505092915050565b6000610b3d8383610aed565b905092915050565b6000602082019050919050565b6000610b5d82610a28565b610b678185610a33565b935083602082028501610b7985610a44565b8060005b85811015610bb55784840389528151610b968582610b31565b9450610ba183610b45565b925060208a01995050600181019050610b7d565b50829750879550505050505092915050565b60006020820190508181036000830152610be18184610b52565b905092915050565b600080fd5b600080fd5b7f4e487b7100000000000000000000000000000000000000000000000000000000600052604160045260246000fd5b610c2b82610aa3565b810181811067ffffffffffffffff82111715610c4a57610c49610bf3565b5b80604052505050565b6000610c5d610989565b9050610c698282610c22565b919050565b600067ffffffffffffffff821115610c8957610c88610bf3565b5b610c9282610aa3565b9050602081019050919050565b82818337600083830152505050565b6000610cc1610cbc84610c6e565b610c53565b905082815260208101848484011115610cdd57610cdc610bee565b5b610ce8848285610c9f565b509392505050565b600082601f830112610d0557610d04610be9565b5b8135610d15848260208601610cae565b91505092915050565b600060208284031215610d3457610d33610993565b5b600082013567ffffffffffffffff811115610d5257610d51610998565b5b610d5e84828501610cf0565b91505092915050565b6000819050919050565b610d7a81610d67565b8114610d8557600080fd5b50565b600081359050610d9781610d71565b92915050565b60008060408385031215610db457610db3610993565b5b6000610dc2858286016109e6565b9250506020610dd385828601610d88565b9150509250929050565b600082825260208201905092915050565b6000610df982610a54565b610e038185610ddd565b9350610e13818560208601610a70565b610e1c81610aa3565b840191505092915050565b60006040820190508181036000830152610e418185610dee565b90508181036020830152610e558184610dee565b90509392505050565b60008060408385031215610e7557610e74610993565b5b600083013567ffffffffffffffff811115610e9357610e92610998565b5b610e9f85828601610cf0565b925050602083013567ffffffffffffffff811115610ec057610ebf610998565b5b610ecc85828601610cf0565b9150509250929050565b7f4e487b7100000000000000000000000000000000000000000000000000000000600052602260045260246000fd5b60006002820490506001821680610f1d57607f821691505b60208210811415610f3157610f30610ed6565b5b50919050565b7f4e487b7100000000000000000000000000000000000000000000000000000000600052603260045260246000fd5b600081905092915050565b60008190508160005260206000209050919050565b60008154610f9381610f05565b610f9d8186610f66565b94506001821660008114610fb85760018114610fc957610ffc565b60ff19831686528186019350610ffc565b610fd285610f71565b60005b83811015610ff457815481890152600182019150602081019050610fd5565b838801955050505b50505092915050565b60006110118284610f86565b915081905092915050565b7f4e487b7100000000000000000000000000000000000000000000000000000000600052601160045260246000fd5b600061105682610d67565b91507fffffffffffffffffffffffffffffffffffffffffffffffffffffffffffffffff8214156110895761108861101c565b5b60018201905091905056fea2646970667358221220ea52ee03368ddaa94e84a55a7eb266964721276cfd02fc2fdbf88577d2f2539464736f6c63430008090033",
  "linkReferences": {},
  "deployedLinkReferences": {}
}